:100000000C9450000C946D000C946D000C946D00D9
:100010000C946D000C946D000C946D000C946D00AC
:100020000C946D000C946D000C946D000C946D009C
:100030000C946D000C946D000C946D000C946D008C
:100040000C946D000C946D000C946D000C946D007C
:100050000C946D00084AD73B3BCE016E84BCBFFDBB
:10006000C12F3D6C74319ABD56833DDA3D00C77F88
:1000700011BED9E4BB4C3E916BAAAABE0000008021
:100080003F05A84CCDB2D44EB93836A9020C50B9B0
:10009000918688083CA6AAAA2ABE000000803F00DC
:1000A00011241FBECFE5D4E0DEBFCDBF11E0A0E636
:1000B000B0E0ECEAF2E102C005900D92A037B10782
:1000C000D9F711E0A0E7B1E001C01D92A03FB10750
:1000D000E1F70E94B0010C9454090C9400000F93B6
:1000E0001F93082F10E0000F111F000F111FF801C0
:1000F000E057FE4FD801A059BE4F608171818281C7
:1001000093812D913D914D915C910E9464040E94D8
:10011000410700531E4FF8016083718382839383EC
:100120001F910F9108958F929F92AF92BF92CF929D
:10013000DF92EF92FF920F931F93082F10E0000FB2
:10014000111F000F111FF801E059FE4F208131816E
:1001500042815381F801E057FE4FC080D180E28098
:10016000F380CA01B9010E946A034B015C01C70117
:10017000B601A70196010E946A039B01AC01C5016B
:10018000B4010E943D030E946F0800551E4FF80104
:1001900060837183828393831F910F91FF90EF900F
:1001A000DF90CF90BF90AF909F908F900895CF92A7
:1001B000DF92EF92FF920F931F93262FC82EDD241C
:1001C00030E0442737FD4095542FCA01B9010E9401
:1001D00010052BED3FE049E45FEB0E946A037B01D1
:1001E0008C01B601882777FD8095982F0E94100515
:1001F0009B01AC01C801B7010E946A030E94690714
:100200007B018C0180E690E0C80ED91EF60160816A
:1002100070E0882777FD8095982F0E941005A8012F
:1002200097010E946A031F910F91FF90EF90DF905A
:10023000CF900895CF92DF92EF92FF920F931F938A
:10024000262FC82EDD2430E0442737FD4095542F5B
:10025000CA01B9010E9410052BED3FE049E45FEBB4
:100260000E946A037B018C01B601882777FD809587
:10027000982F0E9410059B01AC01C801B7010E9494
:100280006A030E9465087B018C0180E690E0C80E3D
:10029000D91EF601608170E0882777FD8095982F40
:1002A0000E941005A80197010E946A031F910F91F7
:1002B000FF90EF90DF90CF9008958F929F92AF9232
:1002C000BF92CF92DF92EF92FF920F931F93882EEF
:1002D0000F2EF0E0EF2EF0E0FF2EF0E00F2FF0E019
:1002E0001F2FF02D570168019924892D682D0E9438
:1002F0001A019B01AC01C801B7010E943D037B01BB
:100300008C01892D682D0E94D7009B01AC01C6018C
:10031000B5010E943D035B016C01939488E098163F
:1003200021F7E82DF0E0EE0FFF1FEE0FFF1FDF01BA
:10033000A059BE4FED92FD920D931C931397E05779
:10034000FE4FA082B182C282D3821F910F91FF9093
:10035000EF90DF90CF90BF90AF909F908F900895D7
:100360001F9310E0812F0E945D01812F0E94930056
:10037000812F0E946F001F5F1830A1F71F91089511
:10038000A0E0B0E0E6ECF1E00C940A07DC012B0100
:10039000FA019C91923008F439C1EB0188818230D6
:1003A00008F433C1943069F4843009F02FC11196F8
:1003B0009C9111978981981709F428C1A8E6B0E0AB
:1003C00025C1843009F421C18230A9F4923009F0AA
:1003D0001DC19A01AD0188E0EA010990AE01E90171
:1003E00009929E018150C1F7E201898111969C9189
:1003F0008923818308C1923009F407C112962D9098
:100400003C901397EB018A819B811496AD90BD902F
:10041000CD90DC901797EC80FD800E811F819101BB
:10042000281B390BB90137FF04C066277727621BE9
:10043000730B603271050CF061C0121613066CF577
:1004400037014801062E04C09694879477946794E8
:100450000A94D2F721E030E040E050E004C0220FDF
:10046000331F441F551F6A95D2F72150304040403A
:1004700050402E213F2140235123211531054105B4
:10048000510521F021E030E040E050E079018A019F
:10049000E628F728082919293CC0232BD1F1260E7C
:1004A000371E35014601062E04C096948794779432
:1004B00067940A94D2F721E030E040E050E004C0B5
:1004C000220F331F441F551F6A95D2F72150304029
:1004D000404050402A213B214C215D21211531050E
:1004E0004105510521F021E030E040E050E05901A4
:1004F0006A01A628B728C828D9280BC082159305F9
:100500002CF01C01AA24BB24650103C0EE24FF24A7
:10051000870111969C91D20111968C91981709F43C
:1005200045C0992339F0A80197012A193B094C09C4
:100530005D0906C0A60195012E193F09400B510B1C
:1005400057FD08C01182338222822483358346837B
:1005500057831DC081E081833382228288279927B7
:10056000DC01821B930BA40BB50B84839583A683BC
:10057000B7830DC0220F331F441F551F24833583BB
:100580004683578382819381019793838283248159
:10059000358146815781DA01C9010197A109B10965
:1005A0008F5F9F4FAF4FBF4328F30BC091833382C0
:1005B0002282EA0CFB1C0C1D1D1DE482F5820683C1
:1005C000178383E08083248135814681578157FFDB
:1005D0001AC0C901AA2797FDA095BA2F8170907003
:1005E000A070B0705695479537952795822B932B21
:1005F000A42BB52B84839583A683B78382819381B3
:10060000019693838283DF0101C0D201CD01CDB772
:10061000DEB7E2E10C942607A0E2B0E0E2E1F3E00D
:100620000C94160769837A838B839C832D833E8386
:100630004F835887E9E0EE2EF12CEC0EFD1ECE0123
:100640000196B7010E9492068E010F5E1F4FCE01E8
:100650000596B8010E9492068A8991E089278A8BC3
:10066000C701B801AE01475E5F4F0E94C0010E9402
:10067000BD05A096E6E00C943207A0E2B0E0E3E40A
:10068000F3E00C94160769837A838B839C832D8314
:100690003E834F835887F9E0EF2EF12CEC0EFD1EC0
:1006A000CE010196B7010E9492068E010F5E1F4F88
:1006B000CE010596B8010E949206C701B801AE01AD
:1006C000475E5F4F0E94C0010E94BD05A096E6E014
:1006D0000C943207A0E2B0E0E0E7F3E00C940A07E4
:1006E00069837A838B839C832D833E834F835887D2
:1006F000CE010196BE01675F7F4F0E949206CE0138
:100700000596BE016F5E7F4F0E94920699859230DA
:1007100088F089898230C8F0943019F4823051F41D
:1007200004C0843029F4923081F488E690E0C6C099
:10073000923049F420E09A858A89981321E02A872B
:10074000CE010996BBC0823049F420E09A858A899F
:10075000981321E02A8BCE014196B0C02D843E84AF
:100760004F8458886D887E888F88988CEE24FF246B
:100770008701AA24BB24650140E050E060E070E0FE
:10078000E0E0F0E0C10181709070892BE9F0E60CA7
:10079000F71C081D191D9A01AB012A0D3B1D4C1DAC
:1007A0005D1D80E090E0A0E0B0E0E614F7040805ED
:1007B000190520F481E090E0A0E0B0E0BA01A901C1
:1007C000480F591F6A1F7B1FAA0CBB1CCC1CDD1CC9
:1007D00097FE08C081E090E0A0E0B0E0A82AB92A26
:1007E000CA2ADB2A3196E032F10549F0660C771C03
:1007F000881C991C5694479437942794C3CFFA8544
:10080000EA892B893C898B859C85280F391F2E5FAF
:100810003F4F17C0CA0181709070892B61F0169507
:100820000795F794E79480E090E0A0E0B0E8E82A2C
:10083000F92A0A2B1B2B76956795579547952F5FBD
:100840003F4F77FDE7CF0CC0440F551F661F771F42
:1008500017FD4160EE0CFF1C001F111F215030409E
:10086000403090E0590790E0690790E4790760F321
:100870002B8F3C8FDB01CA018F779070A070B07016
:1008800080349105A105B10561F447FD0AC0E1146A
:10089000F1040105110529F0405C5F4F6F4F7F4F58
:1008A00040781A8EFE1711F081E08A8F4D8F5E8F8F
:1008B0006F8F78A383E0898FCE0149960E94BD0592
:1008C000A096E2E10C942607A8E1B0E0EAE6F4E0A5
:1008D0000C94120769837A838B839C832D833E83D8
:1008E0004F835887B9E0EB2EF12CEC0EFD1ECE01A4
:1008F0000196B7010E9492068E010F5E1F4FCE0136
:100900000596B8010E9492062985223008F47EC01F
:100910003989323010F4B8017CC08A859A898927D8
:100920008A87243011F0223031F4231709F06EC089
:1009300068E670E06EC0343039F41D861E861F866E
:10094000188A1C861B8604C0323021F484E0898713
:10095000B7015FC02B853C858B899C89281B390B8F
:100960003C872B87ED84FE840F851889AD88BE886F
:10097000CF88D88CEA14FB040C051D0540F4EE0C5E
:10098000FF1C001F111F215030403C872B8720E0A7
:1009900030E040E050E080E090E0A0E0B0E460E0D3
:1009A00070E0EA14FB040C051D0540F0282B392BE0
:1009B0004A2B5B2BEA18FB080C091D09B695A79575
:1009C00097958795EE0CFF1C001F111F6F5F7F4FDF
:1009D0006F31710531F7DA01C9018F779070A0701E
:1009E000B07080349105A105B10561F427FD0AC0FE
:1009F000E114F1040105110529F0205C3F4F4F4F30
:100A00005F4F20782D873E874F87588BBE01675FE9
:100A10007F4FCB010E94BD056896EAE00C942E073B
:100A2000A8E0B0E0E6E1F5E00C9413079B01AC010F
:100A300083E08983DA01C9018827B7FD8395992767
:100A4000AA27BB27B82E211531054105510519F4F8
:100A500082E089833AC08823A9F0203080E03807FB
:100A600080E0480780E8580729F460E070E080E003
:100A70009FEC30C0EE24FF248701E21AF30A040B36
:100A8000150B02C079018A018EE1C82ED12CDC82BF
:100A9000CB82ED82FE820F831887C801B7010E94C6
:100AA0006E0501971816190684F4082E04C0EE0C82
:100AB000FF1C001F111F0A94D2F7ED82FE820F83E4
:100AC0001887C81AD90ADC82CB82BA82CE01019675
:100AD0000E94BD052896E9E00C942F07EF92FF9243
:100AE0000F931F937B018C0180E0E81680E0F806ED
:100AF00081E0080780E0180788F48FEFE816F1041A
:100B00000105110531F028F088E090E0A0E0B0E0A8
:100B100017C080E090E0A0E0B0E012C080E0E816EE
:100B200080E0F80680E0080781E0180728F088E1F7
:100B300090E0A0E0B0E004C080E190E0A0E0B0E090
:100B400020E230E040E050E0281B390B4A0B5B0B01
:100B500004C016950795F794E7948A95D2F7F701A4
:100B6000E059FF4F8081281B310941095109C90112
:100B70001F910F91FF90EF900895DF92EF92FF92F7
:100B80000F931F93FC01E480F58006811781D180CB
:100B90008081823048F480E090E0A0E1B0E0E82A73
:100BA000F92A0A2B1B2BA5C0843009F49FC0823080
:100BB00021F4EE24FF24870105C0E114F1040105AE
:100BC000110519F4E0E0F0E096C0628173819FEFB7
:100BD000623879070CF05BC022E83FEF261B370B29
:100BE0002A3131052CF020E030E040E050E02AC00E
:100BF000B801A701022E04C07695679557954795D1
:100C00000A94D2F781E090E0A0E0B0E004C0880F41
:100C1000991FAA1FBB1F2A95D2F70197A109B109F5
:100C20008E219F21A023B1230097A105B10521F0BA
:100C300081E090E0A0E0B0E09A01AB01282B392BD5
:100C40004A2B5B2BDA01C9018F779070A070B070CE
:100C500080349105A105B10539F427FF09C0205C56
:100C60003F4F4F4F5F4F04C0215C3F4F4F4F5F4F8F
:100C7000E0E0F0E02030A0E03A07A0E04A07A0E47E
:100C80005A0710F0E1E0F0E079018A0127C06038EE
:100C9000710564F5FB01E158FF4FD801C7018F775B
:100CA0009070A070B07080349105A105B10539F441
:100CB000E7FE0DC080E490E0A0E0B0E004C08FE368
:100CC00090E0A0E0B0E0E80EF91E0A1F1B1F17FF1E
:100CD00005C016950795F794E794319687E0169529
:100CE0000795F794E7948A95D1F705C0EE24FF2481
:100CF0008701EFEFF0E06E2F679566276795902FDD
:100D00009F77D794DD24D7948E2F8695492F462B35
:100D1000582F5D29B701CA011F910F91FF90EF90E5
:100D2000DF900895FC01DB01408151812281622F17
:100D30006F7770E0221F2227221F9381892F880F4F
:100D4000822B282F30E0991F9927991F11969C9389
:100D5000119721153105A9F5411551056105710559
:100D600011F482E037C082E89FEF13969C938E9334
:100D700012979A01AB0167E0220F331F441F551FE2
:100D80006A95D1F783E08C930DC0220F331F441F67
:100D9000551F12968D919C911397019713969C93D2
:100DA0008E931297203080E0380780E0480780E477
:100DB000580758F314962D933D934D935C931797D2
:100DC00008952F3F310579F44115510561057105ED
:100DD00019F484E08C93089564FF03C081E08C9340
:100DE00012C01C9210C02F57304013963C932E9384
:100DF000129783E08C9387E0440F551F661F771F7F
:100E00008A95D1F7706414964D935D936D937C939E
:100E1000179708952F923F924F925F926F927F9211
:100E20008F929F92AF92BF92CF92DF92EF92FF92FA
:100E30000F931F93CF93DF93CDB7DEB7CA1BDB0BA6
:100E40000FB6F894DEBF0FBECDBF09942A8839884B
:100E500048885F846E847D848C849B84AA84B98452
:100E6000C884DF80EE80FD800C811B81AA81B9815E
:100E7000CE0FD11D0FB6F894DEBF0FBECDBFED0172
:100E80000895DF93DD27B92FBF7740E85FE316169B
:100E9000170648075B0710F4D92FAFD09F938F93A5
:100EA0007F936F935AD1E4E5F0E016D062D02F9192
:100EB0003F914F915F91B2D0DD2349F09058A2EA63
:100EC0002AED3FE049EC5FE3D0785D2756D1DF9112
:100ED00050C028D0E3955EC0DF93CF931F930F934C
:100EE000FF92EF92DF927B018C01689405C0DA2EAD
:100EF000EF0194D0FE01E894A5912591359145919B
:100F00005591AEF3EF0139D1FE019701A801DA94B2
:100F100079F7DF90EF90FF900F911F91CF91DF91C4
:100F2000089592C150D0E8F3E894E0E0BB279F57C2
:100F3000F0F02AED3FE049EC06C0EE0FBB0F661F54
:100F4000771F881F28F0B23A62077307840728F0DA
:100F5000B25A620B730B840BE3959A9572F7803843
:100F600030F49A95BB0F661F771F881FD2F7904801
:100F70005FC1092E0394000C11F4882352F0BB0FBB
:100F800040F4BF2B11F460FF04C06F5F7F4F8F4FA1
:100F90009F4F0895EF93E0FF06C0A2EA2AED3FE0DD
:100FA00049EC5FEBEAD0E5DF0F90039401FC905829
:100FB000E1E8F0E053C157FD9058440F551F59F038
:100FC0005F3F71F04795880F97FB991F61F09F3F36
:100FD00079F087950895121613061406551FF2CF5F
:100FE0004695F1DF08C0161617061806991FF1CFAF
:100FF000869571056105089408959B01AC0160E038
:1010000070E080E89FE360CC3AD128F03FD118F03F
:10101000952309F005C118C1112440C1CCDFA0F30C
:10102000959FD1F3950F50E0551F629FF001729F7D
:10103000BB27F00DB11D639FAA27F00DB11DAA1F9C
:10104000649F6627B00DA11D661F829F2227B00DE9
:10105000A11D621F739FB00DA11D621F839FA00D74
:10106000611D221F749F3327A00D611D231F849FC4
:10107000600D211D822F762F6A2F11249F5750401B
:101080008AF0E1F088234AF0EE0FFF1FBB1F661FB6
:10109000771F881F91505040A9F79E3F510570F06F
:1010A000BFC0FCC05F3FECF3983EDCF386957795BC
:1010B0006795B795F795E7959F5FC1F7FE2B880F6A
:1010C000911D9695879597F908959F932BDF0F9023
:1010D00007FCEE5F5FCF11F40EF4B6C0A7C073DF5C
:1010E000D0F39923D9F3CEF39F57550B87FFAFD099
:1010F0000024A0E640EA900180585695979528F480
:10110000805C660F771F881F20F026173707480777
:1011100030F4621B730B840B202931294A2BA695CE
:1011200017940794202531254A2758F7660F771F13
:10113000881F20F026173707480730F4620B730B1F
:10114000840B200D311D411DA09581F7B901842F1D
:101150009158880F9695879508959B01AC01BACA5E
:101160008ED030F093D020F031F49F3F11F41EF474
:101170006BC00EF4E095E7FB53C0E92F1CDF80F352
:10118000BA17620773078407950718F071F49EF584
:1011900084C00EF4E0950B2EBA2FA02D0B01B901DF
:1011A00090010C01CA01A0011124FF27591B99F0DD
:1011B000593F50F4503E68F11A16F040A22F232FE9
:1011C000342F4427585FF3CF469537952795A79539
:1011D000F0405395C9F77EF41F16BA0B620B730BE0
:1011E000840BBAF09150A1F0FF0FBB1F661F771F51
:1011F000881FC2F70EC0BA0F621F731F841F48F406
:10120000879577956795B795F7959E3F08F0B3CF8B
:101210009395880F08F09927EE0F97958795089575
:1012200097F99F6780E870E060E008959F3F31F094
:10123000915020F4879577956795B795880F911D04
:101240009695879597F908959FEF80EC08959150B2
:101250005040660F771F881FD2F708959F938F9392
:101260007F936F93FF93EF939B01AC0133DAEF9180
:10127000FF9132DE2F913F914F915F912BCA002455
:101280000A941616170618060906089500240A94EB
:1012900012161306140605060895E894BB27662760
:0C12A0007727CB0197F90895F894FFCF51
:1012AC0080BCD5BC80432A43000000000000000035
:1012BC0000010202030303030404040404040404F1
:1012CC0005050505050505050505050505050505C2
:1012DC0006060606060606060606060606060606A2
:1012EC000606060606060606060606060606060692
:1012FC000707070707070707070707070707070772
:10130C000707070707070707070707070707070761
:10131C000707070707070707070707070707070751
:10132C000707070707070707070707070707070741
:10133C000808080808080808080808080808080821
:10134C000808080808080808080808080808080811
:10135C000808080808080808080808080808080801
:10136C0008080808080808080808080808080808F1
:10137C0008080808080808080808080808080808E1
:10138C0008080808080808080808080808080808D1
:10139C0008080808080808080808080808080808C1
:1013AC0008080808080808080808080808080808B1
:00000001FF
